:040000000BEF00F012
:100008004C82FACF01F0FBCF02F05CED04F00BEF6D
:0200180006F0F0
:100600000033322C060C5370656564200050574D42
:100610005F250000900E2D6ED00E2E6E030E2F6EF5
:10062000000E316E000E306E20EE33F010EE1BF037
:10063000110EDBCFE3FFE806FCE2000E326EEAECBF
:1006400005F0010E146E020E4EEC06F047C014F0D9
:1006500048C015F097EC05F0000E146E020E4EEC3B
:1006600006F045C014F046C015F097EC05F0C1EC5B
:1006700005F09D84000E326E110E326401D04CD014
:100680003250010D1B0EF324D96E000EF420DA6EE9
:10069000DF50BB6E000E4B6E040E4B6401D03AD09F
:1006A00049504A10D8A405D0000E316E000E306EAD
:1006B00011D02DC00FF02EC010F02FC011F049C086
:1006C00012F04AC013F0146A62EC05F00FC030F06B
:1006D00010C031F0000E4A6E000E496E000E146E0E
:1006E000090E4EEC06F03250010D1B0EF324D96EAC
:1006F000000EF420DA6EDF50A3EC04F0010E146E4D
:10070000090E4EEC06F03050A3EC04F03EEC06F07F
:100710004B2AC2D7322AB0D7120E326E3204326E52
:100720003250010D1B0EF324D96E000EF420DA6E48
:10073000DF50BB6E000E4B6E040E4B6401D03AD0FE
:1007400049504A10D8A405D0000E316E000E306E0C
:1007500011D02DC00FF02EC010F02FC011F049C0E5
:1007600012F04AC013F0146A62EC05F00FC030F0CA
:1007700010C031F0000E4A6E000E496E000E146E6D
:10078000090E4EEC06F03250010D1B0EF324D96E0B
:10079000000EF420DA6EDF50A3EC04F0010E146EAC
:1007A000090E4EEC06F03050A3EC04F03EEC06F0DF
:1007B0004B2AC2D73250D8B45DD7B0D7126E12C010
:1007C00010F0103A0F0E10168C501018FE0B101867
:1007D0008C6E12C010F0050E116ED8901032112ED2
:1007E000FCD710468C501018FD0B10188C6E12C0E0
:1007F00010F0060E116ED8901032112EFCD7104654
:1008000010468C501018FB0B10188C6E106A12AE2C
:1008100001D0102A1046104610468C501018F70BC5
:1008200010188C6E0FB002D08C9801D08C88030EFB
:10083000E82EFED78C8A030EE82EFED78C9A510E36
:10084000E82EFED700D012B002D08C9001D08C8060
:1008500012C010F0D890103210468C501018FD0BBA
:1008600010188C6E12C010F0D8901032D890103240
:10087000104610468C501018FB0B10188C6E12C0CE
:1008800010F0D8901032D8901032D8901032104614
:10089000104610468C501018F70B10188C6E030E73
:1008A000E82EFED78C8A030EE82EFED78C9A510EC6
:1008B000E82EFED700D012000600E9CF03F0EACF01
:1008C00004F0E1CF05F0E2CF06F0D9CF07F0DACFA0
:1008D00008F0F3CF09F0F4CF0AF0F6CF0BF0F7CF22
:1008E0000CF0F8CF0DF0F5CF0EF09EA40ED09E9434
:1008F000000ECF6E000ECE6EBF504A6E496ABE50DB
:100900004924496E000E4A204A6E0EC0F5FF0DC004
:10091000F8FF0CC0F7FF0BC0F6FF0AC0F4FF09C0D8
:10092000F3FF08C0DAFF07C0D9FF06C0E2FF05C029
:10093000E1FF04C0EAFF03C0E9FF02C0FBFF01C002
:10094000FAFF4C9211001A6E1AC00FF0106A000ED6
:10095000126E0A0E116E2AEC05F00F50196E1AC0B5
:100960000FF0106A000E126E0A0E116EE8EC04F021
:100970000F501A6E1AC00FF0106A000E126E0A0E97
:10098000116E2AEC05F00F50186E1AC00FF0106AA5
:10099000000E126E0A0E116EE8EC04F00F501A6E83
:1009A0001AC00FF0106A000E126E0A0E116E2AECB9
:1009B00005F00F50176E1750300F66EC06F0185008
:1009C000300F66EC06F01950300F66EC06F012009E
:1009D000000E146E12AE06D0116C121ED8B0122A80
:1009E000010E146E10AE06D00F6C101ED8B0102A77
:1009F000010E141A000E166E000E156E1150121014
:100A0000D8B41CD0010E136E04D0D8901136123613
:100A1000132A12AEFAD7D8901536163611500F5C3D
:100A200012501058D8A005D011500F5E1250105A15
:100A30001580D89012321132132EEDD71450D8B43D
:100A400004D0156C161ED8B0162A15C00FF016C0AB
:100A500010F01200000E146E10AE06D00F6C101EB7
:100A6000D8B0102A010E146E12AE04D0116C121EF2
:100A7000D8B0122A11501210D8B418D0010E136E2B
:100A800004D0D89011361236132A12AEFAD711506C
:100A90000F5C12501058D8A004D011500F5E1250A5
:100AA000105AD89012321132132EF1D71450D8B4F4
:100AB00004D00F6C101ED8B0102A0FC00FF010C059
:100AC00010F01200000E156E000E166E000E176E5E
:100AD000125013101410D8B423D0010E186E05D084
:100AE000D890123613361436182A14AEF9D7D89087
:100AF00015361636173612500F5C13501058145016
:100B00001158D8A007D012500F5E1350105A14502D
:100B1000115A1580D890143213321232182EE7D79A
:100B200015C00FF016C010F017C011F01200000E23
:100B3000186E13D01850010D14C016F015C017F020
:100B4000F3501626F450172216C0F6FF17C0F7FF11
:100B50000800F55066EC06F0182A1850010D14C074
:100B600016F015C017F0F3501626F450172216C0D1
:100B7000F6FF17C0F7FF0800F5500009D8B41200BF
:100B8000D9D7000E936E000E816E000E956E000E8A
:100B9000926E94929484000E826E000E816E806834
:100BA0003EEC06F0000E806E3EEC06F0D38CD38A4D
:100BB000D388D390D382050EBD6ECD80CD88CD8AEB
:100BC000CD8EF28EF28C0C0EBA6E640ECB6E040ECD
:100BD000CA6E12009550C00B956EE00E156E6A0E2F
:100BE000E82EFED7152EFCD7000E166E040E1664E6
:100BF00001D00ED01650010D010EF324F66E060E34
:100C0000F420F76E0800F5506DEC06F0162AEED7CA
:100C100027EC06F012004B6A4A6A496AB60EF66E75
:100C20000C0EF76E000EF86E00EE33F010EE16F0BC
:100C30000900F5CFEEFFE550E150FAE14C904C92FF
:100C4000000EF86E060EF76E00010AEF03F0010EBB
:100C50006DEC06F00D0E146EC30EE82EFED7142EAA
:100C6000FCD700F0020E6DEC06F00D0E146EC30EF4
:100C7000E82EFED7142EFCD700F01200000E106EE6
:100C8000180E106401D01200680E0F6EE40EE82EEC
:100C9000FED70F2EFCD700D0102AF2D7156E1450B5
:100CA000D8A402D0800E01D0C00E146E14501524AA
:100CB0006DEC06F01200050A0F14191E23282D32C0
:100CC000373C41464B50555A0D060606136E010E31
:100CD0000F6E1350DEEC03F01200136E000E0F6E59
:080CE0001350DEEC03F01200DA
:020000040020DA
:08000000FFFFFFFFFFFFFFFF00
:020000040030CA
:0E000000FF02191EFF8181FF0FC00FE00F40AD
:00000001FF
